:100000000C948D010C94BE010C94BE010C94BE01A5
:100010000C94BE010C94BE010C94BE010C94BE0164
:100020000C94BE010C94BE010C94BE010C94BE0154
:100030000C94BE010C9402110C94BE010C94BE01F0
:100040000C94BE010C9455110C94BE010C94BE018D
:100050000C94BE010C94B4110C94BE010C94940F3A
:100060000C94BE010C945E0F0C94340F0C94BE01E2
:100070000C94BE010C94BE010C94BE010C94BE0104
:100080000C94BE010C94BE010C94BE010C94BE01F4
:100090000C94FE0E0C94D40E0C94BE010C94DE0F46
:1000A0000C94BE010C94BE010C94BE010C94BE01D4
:1000B0000C94BE010C94BE010C94BE010C94BE01C4
:1000C0000C94BE010C94BE010C94BE010C94BE01B4
:1000D0000C94BE010C94BE010C94BE010C94BE01A4
:1000E0000C94BE0107634236B79BD8A71A396856ED
:1000F00018AEBAAB558C1D3CB7CC5763BD6DEDFD4A
:10010000753EF6177231BF000000803F0800000006
:10011000BE922449123EABAAAA2ABECDCCCC4C3EFC
:1001200000000080BEABAAAAAA3E00000000BF00EB
:100130000000803F0000000000084178D3BB4387E7
:10014000D1133D190E3CC3BD4282AD2B3E68EC82FB
:1001500076BED98FE1A93E4C80EFFFBE01C4FF7F80
:100160003F00000000000C94A4080C9495040C942B
:10017000CC040C949F040C94B0040C9409030C94CC
:10018000A3040C94B7020C9475080C94B9020C9457
:10019000D0040C94B4040C9448080C94F5020C940C
:1001A000D6040C94E6020C94BA040C942E080C9419
:1001B0009B040C94DD030C94E4210C94AA040C948D
:1001C00041080C941F080C94D5040C9413120C9441
:1001D000BE040C941E080C94DA040C942A040C94AB
:1001E000B8020C94C8040C94A7040C9417030C9444
:1001F000C204000020002300260029002C002F004C
:1002000032000001000003010601090100000A0B91
:1002100002090C0D0E080703040100000000000095
:1002200000000000000000000000000000000000CE
:10023000000000000000000012111000000000008B
:1002400000000000000000000000000000000000AE
:10025000000000002100240027002A002D003000AB
:10026000330001010000040107010A01020100013D
:1002700002102020080810204010204080020102B7
:10028000010804020101020408102040808040207F
:1002900010080402018004020180402010080402BA
:1002A0000108040201010204081020408001020438
:1002B000081020408000002200250028002B002E7E
:1002C000003100340002010000050108010B0105A6
:1002D000050505070508080808020202020A0A08BF
:1002E00008040404040101010101010101030303E5
:1002F0000303030303040707070C0C0C0C0C0C0C82
:100300000C0202020206060606060606060B0B0B88
:100310000B0B0B0B0B001312E42111241FBECFEFAC
:10032000D1E2DEBFCDBF00E00CBF27E0A8E8B3E01C
:1003300001C01D92A337B207E1F713E0A0E0B2E0DD
:10034000E0E9F2E500E00BBF02C007900D92A8388B
:10035000B107D9F711E0CCE8D1E000E006C0219761
:100360000109802FFE010E94BD27CB38D10780E014
:100370000807A9F70E9403130C9436290C94000077
:100380004F925F926F927F928F929F92AF92BF92A5
:10039000CF92DF92EF92FF920F931F93CF93DF9351
:1003A0006B017C01D0910C06C091100688E0482EAC
:1003B00082E0582E9AE0892E912CA12CB12CC114E8
:1003C000D104E104F10409F4CFC0C701B601A501CD
:1003D00094010E94A023F201658369017A01F0E093
:1003E000A0E0B0E0D07C712C612CE0E0C07C0091FA
:1003F00008020A3090F421E030E040E050E060E094
:1004000070E080E090E00E94CD27F22FA32FB42F60
:10041000D52B762E672EE82FC92B009109020A30C2
:10042000A8F410E0065F1F4F21E030E040E050E00C
:1004300060E070E080E090E00E94CD27F22BA32BDB
:10044000B42BD52B762A672AE82BC92B00910A02F8
:100450000A30A8F410E00C5E1F4F21E030E040E0CD
:1004600050E060E070E080E090E00E94CD27F22B49
:10047000A32BB42BD52B762A672AE82BC92B009106
:100480000B020A30A8F410E0005E1F4F21E030E0BC
:1004900040E050E060E070E080E090E00E94CD2716
:1004A000F22BA32BB42BD52B762A672AE82BC92B4A
:1004B00000910C020A30A8F410E0065D1F4F21E005
:1004C00030E040E050E060E070E080E090E00E94CA
:1004D000CD27F22BA32BB42BD52B762A672AE82B1A
:1004E000C92B00910D020A30A8F410E00C5C1F4FDC
:1004F00021E030E040E050E060E070E080E090E03B
:100500000E94CD27F22BA32BB42BD52B762A672A5A
:10051000E82BC92B81E0481A510882E0481682E096
:10052000580609F04CCFF0930906A0930A06B09341
:100530000B06D0930C0670920D0660920E06E093A7
:100540000F06C0931006DF91CF911F910F91FF907E
:10055000EF90DF90CF90BF90AF909F908F907F9063
:100560006F905F904F900895F201158238CF0895F3
:100570000895AF92BF92CF92DF92EF92FF920F93C6
:100580001F93CF93DF936C017B018B01040F151F29
:10059000EB015E01AE18BF08C017D10759F0699191
:1005A000D601ED91FC910190F081E02DC6011995E5
:1005B000892B79F7C501DF91CF911F910F91FF90A2
:1005C000EF90DF90CF90BF90AF900895FC01538DD6
:1005D000448D252F30E0842F90E0821B930B54171D
:1005E00010F0CF96089501970895FC01918D828DAA
:1005F000981761F0A28DAE0FBF2FB11D5D968C9143
:10060000928D9F5F9F73928F90E008958FEF9FEF81
:100610000895FC01918D828D981731F0828DE80F3D
:10062000F11D858D90E008958FEF9FEF0895FC01F7
:10063000918D228D892F90E0805C9F4F821B9109C4
:100640008F739927089581E196E00E94170321E0B6
:10065000892B09F420E0822F08958EEA96E00E940B
:10066000170321E0892B09F420E0822F0895CF930E
:10067000DF93EC01E881F9810680F781E02D19957F
:10068000EA89FB8980818F7E8083EA89FB8980816A
:10069000877F8083EA89FB8980818F778083EA89DD
:1006A000FB8980818F7D80838A8D898FDF91CF91B7
:1006B0000895CF92DF92EF92FF921F93CF93DF9333
:1006C000EC016A017B01122FE889F98982E08083BD
:1006D000C11481EED806E104F104A1F060E079E0F4
:1006E0008DE390E0A70196010E94A02321503109DB
:1006F000410951095695479537952795211580E170
:10070000380798F0E889F989108260E874E88EE18A
:1007100090E0A70196010E94A023215031094109D0
:1007200051095695479537952795EC85FD8530837A
:10073000EE85FF852083188EEC89FD891083EA8978
:10074000FB89808180618083EA89FB898081886060
:100750008083EA89FB89808180688083EA89FB89BC
:1007600080818F7D8083DF91CF911F91FF90EF90EB
:10077000DF90CF900895FC01A48DA80FB92FB11D73
:10078000A35ABF4F2C91848D90E001968F739927C7
:10079000848FA689B7892C93A089B1898C918370A5
:1007A00080648C93938D848D981306C00288F3899E
:1007B000E02D80818F7D80830895EF92FF920F93CB
:1007C0001F93CF93DF93EC0181E0888F9B8D8C8DFD
:1007D00098131AC0E889F989808185FF15C09FB7F1
:1007E000F894EE89FF896083E889F98980818370B4
:1007F000806480839FBF81E090E0DF91CF911F9163
:100800000F91FF90EF900895F62E0B8D10E00F5F83
:100810001F4F0F731127E02E8C8D8E110CC00FB659
:1008200007FCFACFE889F989808185FFF5CFCE01F1
:100830000E94BB03F1CFEB8DEC0FFD2FF11DE35AAE
:10084000FF4FF0829FB7F8940B8FEA89FB89808174
:100850008062CFCFCF93DF93EC01888D8823B9F0EE
:10086000AA89BB89E889F9898C9185FD03C08081BB
:1008700086FD0DC00FB607FCF7CF8C9185FFF2CF38
:10088000808185FFEDCFCE010E94BB03E9CFDF91D0
:10089000CF91089580E090E0892B29F00E942D03EC
:1008A00081110E94000080E090E0892B29F00E94D5
:1008B000230381110E94000080E090E0892B49F021
:1008C00080E090E0892B29F00E94000081110E94B5
:1008D000000080E090E0892B49F080E090E0892BD7
:1008E00029F00E94000081110C94000008958150AD
:1008F000823108F05AC0E82FF0E08827ED57FB4F0F
:100900008F4F0C94BD27A304A70495049B049F0458
:10091000D504AA04B004B404BA04BE04C204C804D2
:10092000CC04D504D004D604DA04809180008F77FB
:10093000809380000895809180008F7DF9CF809111
:100940008000877FF5CF84B58F7784BD089584B507
:100950008F7DFBCF8091B0008F778093B00008959A
:100960008091B0008F7DF9CF809190008F77809338
:1009700090000895809190008F7DF9CF8091900034
:10098000877FF5CF8091A0008F778093A000089596
:100990008091A0008F7DF9CF8091A000877FF5CF57
:1009A000809120018F77809320010895809120010C
:1009B0008F7DF9CF80912001877FF5CFCF93DF9393
:1009C000282F30E0F901E45FFD4F8491F901E159EE
:1009D000FD4FD491F901E153FD4FC491CC23A1F017
:1009E00081110E947704EC2FF0E0EE0FFF1FEE5014
:1009F000FE4FA591B491EC91ED2381E090E009F4D4
:100A000080E0DF91CF91089580E090E0FACF1F93CE
:100A1000CF93DF93282F30E0F901E45FFD4F8491FD
:100A2000F901E159FD4FD491F901E153FD4FC49112
:100A3000CC23A9F0162F81110E947704EC2FF0E04F
:100A4000EE0FFF1FEB54FD4FA591B4918FB7F894B3
:100A5000EC91111108C0D095DE23DC938FBFDF919C
:100A6000CF911F910895DE2BF8CFCF93DF9390E0C5
:100A7000FC01E159FD4F249181539D4FFC0184916C
:100A80008823C9F090E0880F991FFC01EE5AFD4FB2
:100A9000A591B491FC01EB54FD4FC591D491611126
:100AA0000DC09FB7F8948C91209582238C938881F8
:100AB000282328839FBFDF91CF910895623051F49E
:100AC0009FB7F8943C91822F809583238C93E88183
:100AD0002E2BEFCF8FB7F894EC912E2B2C938FBF4A
:100AE000EACF3FB7F8948091DF039091E003A091A3
:100AF000E103B091E20326B5A89B05C02F3F19F092
:100B00000196A11DB11D3FBFBA2FA92F982F88278D
:100B1000BC01CD01620F711D811D911D42E0660F68
:100B2000771F881F991F4A95D1F708950F931F9338
:100B3000CF93DF9300D000D000D0CDB7DEB7462FE3
:100B400050E070E060E0762F652F542F44279B0122
:100B5000282BD901CA01AD0166277727142FA92FA9
:100B600030E020E08091590790915A072817390703
:100B700098F580915F07BA2F012F882351F0849F49
:100B8000B001859F700D1124072F8A9FC001112489
:100B9000B92FE0916507809160079091610760919E
:100BA0006207E613ADC0B901660F771F620F731FAE
:100BB000860F971FE0916207E80FF92FF11D008360
:100BC000E0916307E80FF92FF11DB083609164078E
:100BD000860F911DFC0110822F5F3F4F2830310599
:100BE00009F0C0CF8091600790916107892B09F4CB
:100BF0007CC00E94710500916607109167072091E3
:100C0000680730916907601771078207930740F4FE
:100C100060936607709367078093680790936907EE
:100C20000091660710916707209168073091690766
:100C3000601B710B820B930B6C3271408105910527
:100C4000C0F2F89480915B0790915C079A83898346
:100C5000E0916007F0916107DF011196808189873B
:100C600090915707E0916A07F0916B0780916C07AC
:100C7000992309F451C09081982B98879081809591
:100C800089238F838F818C8388E08B8358856F8144
:100C900049853B812C8189819A81508347FD252F8D
:100CA0003A952083262F39F0441F00C0000060834E
:100CB000000000C0F2CF38E04D9160830000019742
:100CC00061F7F0936B07E0936A0749873B832C83B6
:100CD0009A83898378940E94710560936607709364
:100CE0006707809368079093690729960FB6F89471
:100CF000DEBF0FBECDBFDF91CF911F910F91089541
:100D0000B901660F771F660F771F860F971FE80FD1
:100D1000F92FF11D10824ECF9081982B98879081EA
:100D2000809589238F838F818E8388E08D8358857A
:100D30006F8149853D812E8189819A81508347FD4C
:100D4000252F00C000C0208300C000C000C000C02C
:100D500000C060830000262F3A9541F0441F000038
:100D600000C000C000C000C000C0E8CF38E04D9116
:100D700000C0608300C0019709F7F0936B07E09310
:100D80006A0749873D832E83A3CF2FB7F8946091DC
:100D9000DB037091DC038091DD039091DE032FBFB4
:100DA00008952091B703260F3327331F21323105D1
:100DB000ECF42091DF04FC0190E080E0243069F045
:100DC00082E00895A091B7032191AC0149565C4F90
:100DD000A40FB52FB11D2C930196861798F380911F
:100DE000B703680F6093B70380E0089581E008952A
:100DF0001092DF0481E08093DE041092B90461E078
:100E000084E10E94070561E085E10E940705E9EBA6
:100E1000F0E080818E7F808380818D7F808388E475
:100E20008093B80085E48093BC000895CF93DF934E
:100E300091E0909396038823B9F0C091B800D091C7
:100E4000BA008091BC008A7B8093BC0060E084E1A2
:100E50000E94070560E085E10E9407050E94F806F0
:100E6000D093BA00C093B800DF91CF910895CF928C
:100E7000DF92EF92FF920F931F93CF93DF93D09166
:100E8000080581E0D13208F09CC0C09107050E949E
:100E900071056B017C018091DF0481116CC082E0DF
:100EA0008093DF0481E08093DE048FEF8093DD0484
:100EB0001092DC04D093DB04A7EEB4E0EBEBF4E09B
:100EC00080E0D8138DC01092BA048091BA04CC0F80
:100ED000C82BC093BA048091B904813009F084C052
:100EE0001092B9040E9471056B017C018091BA04D3
:100EF0008093BB008091E1049091E204A091E3040F
:100F0000B091E404892B8A2B8B2BA1F00E947105F0
:100F10000091E1041091E2042091E3043091E40493
:100F20006C197D098E099F090617170728073907CD
:100F300008F442C08091BC0083FDD8CF85EC80933B
:100F4000BC000E9471056B017C018091DF0482303E
:100F500009F44CC08091DD048F3F09F469C0809191
:100F6000DD04803209F466C08091DD04803309F429
:100F700063C084E026C08091E1049091E204A091D6
:100F8000E304B091E404892B8A2B8B2B09F483CFE3
:100F90000E9471050091E1041091E2042091E304A4
:100FA0003091E4046C197D098E099F090617170713
:100FB0002807390708F06FCF8091E0040E941607D8
:100FC00085E01092E604109208051092E504DF9186
:100FD000CF911F910F91FF90EF90DF90CF900895E8
:100FE0009D9191938F5F6DCF85EEA9CF8091E104A4
:100FF0009091E204A091E304B091E404892B8A2B40
:101000008B2B09F4A2CF0E9471050091E10410918D
:10101000E2042091E3043091E4046C197D098E0907
:101020009F09061717072807390708F08ECFC4CF86
:1010300080E0C7CF82E0C5CF83E0C3CF0895E091C1
:10104000710480917004E81730F4F0E0EE58FB4F23
:10105000808190E008958FEF9FEF08959091710443
:10106000809170042FEF3FEF981748F4E92FF0E0DC
:10107000EE58FB4F208130E09F5F90937104C901CF
:1010800008958091700490917104891B990B0895C3
:10109000CF92DF92EF92FF920F931F93CF93DF9344
:1010A0007C01CB018A012091E504222389F0EB0128
:1010B0006B01C40ED51ECC15DD0569F06991D70111
:1010C000ED91FC910190F081E02DC7011995F3CFCE
:1010D000642F0E94D106C801DF91CF911F910F911B
:1010E000FF90EF90DF90CF900895CF93DF931F9202
:1010F000CDB7DEB769832091E5042223F9F0209172
:101100000805203258F021E030E0FC0133832283CF
:1011100090E080E00F90DF91CF9108958091E604F8
:10112000E82FF0E0E951FB4F998190838F5F809326
:10113000E6048093080581E090E0ECCF61E0CE0109
:1011400001960E94D106F7CF90E080E008954F927B
:101150005F926F927F928F929F92AF92BF92CF9247
:10116000DF92EF92FF920F931F93CF93DF93FC01D7
:101170001681A12FB0E020E833E341EE51E00E9458
:10118000C2234B015C01C2EBD7E09D0104E610E0F5
:1011900080E9E82EFF24F394CE01825B974082170A
:1011A00093079CF14580512C2E54384FC90164E6B9
:1011B00070E00E948A277C01C90160E971E00E9409
:1011C0008A276C010CE112E0C1E0D0E0390183E034
:1011D00068227724C415D5050CF040C0C230D10573
:1011E00071F56114710459F5E114F10419F4C11495
:1011F000D10429F5B0E88B0EBBE39B1EB6E2AB1E13
:10120000B11C21960F5F1F4FE5CFCE018370992748
:10121000892B99F4CE01B8010E948A27892B31F4D9
:10122000CE01B7010E948A27892B39F4A0E88A0EE3
:10123000A1E59A1EA1E0AA1EB11C2196ADCFD8014E
:101240008C91A82FB0E020E831E541E050E00E9409
:10125000C223860E971EA81EB91ED3CF228130E06E
:10126000A0E1BEE00E94CD236B017C01218130E032
:10127000ACE3B0E00E94CD23C60ED71EE81EF91ED7
:101280008081C80ED11CE11CF11CA481A150BB0BB4
:1012900020E831E541E050E00E94C5276C0D7D1D3E
:1012A0008E1D9F1D680D791D8A1D9B1DDF91CF919D
:1012B0001F910F91FF90EF90DF90CF90BF90AF9074
:1012C0009F908F907F906F905F904F9008956F9256
:1012D0007F928F929F92AF92BF92CF92DF92EF92C6
:1012E000FF920F931F93CF93DF936B017C01EA0171
:1012F0008CE3882E912CA12CB12CC701A50194015F
:101300000E94A0236883CA01B901A50194010E942B
:10131000A0236983C701B60120E13EE040E050E030
:101320000E94A023CA01B90128E130E040E050E06A
:101330000E94A0236A83C701B60120E831E541E09D
:1013400050E00E94A02369017A01CA01B9016C5FD3
:101350007F4F8F4F9F4F27E030E040E050E00E94EA
:10136000A0236F5F6B83812C912C540140E094E6A5
:10137000692E712C00E911E0242F30E02E54384FF3
:10138000F901E370FF273097F9F4C901B3010E9416
:101390008A27892B31F4C901B8010E948A27892B39
:1013A00099F48EE691E0A0E0B0E0880E991EAA1EA6
:1013B000BB1ED501C401AA27BB27C816D906EA0659
:1013C000FB0638F04F5FD8CF8DE691E0A0E0B0E0AB
:1013D000ECCF4E83C90164E670E00E948A278C013D
:1013E000C90160E971E00E948A27309729F401154C
:1013F0001105E1F40097D1F04DE651E060E070E0B6
:10140000841A950AA60AB70AC818D908EA08FB0878
:10141000ACE1B2E020E0213071F4309791F5011594
:10142000110511F4009769F54DE106C04EE651E053
:1014300060E070E0E5CF4C9150E070E060E031E0BA
:10144000320FC416D506E606F70640F0C41AD50AD0
:10145000E60AF70A1196232F3C30E9F62F5F2D8319
:10146000C394CC82DF91CF911F910F91FF90EF90A9
:10147000DF90CF90BF90AF909F908F907F906F90B4
:1014800008954CE1D9CFCF92DF92EF92FF920F9364
:101490001F93CF93DF93062F823009F4B7C078F4FF
:1014A000882309F449C0813009F477C0DF91CF91D6
:1014B0001F910F91FF90EF90DF90CF9008958430AF
:1014C00009F40BC108F4D7C0853081F7A091090653
:1014D000E0900A06F0900B06D0910C06C0910D0624
:1014E000B0910E06F0910F06FF70E0911006E07CBF
:1014F00010E00C5C1F4F21E030E040E050E060E085
:1015000070E080E090E00E94CD27A22BA093090616
:101510003E2930930A064F2940930B065D2B5093CA
:101520000C066C2B60930D067B2B70930E068F2B95
:1015300080930F069E2B2EC0E0910A06EC7F10913F
:101540000B06D0910C06C0910D06B0910E06A0912D
:101550000F06F091100621E030E040E050E060E03E
:1015600070E080E090E00E94CD2720930906E32BF5
:10157000E0930A06142B10930B06D52BD0930C0680
:10158000C62BC0930D06B72BB0930E068A2B809303
:101590000F069F2B9093100689CFF0900906F091CB
:1015A0000A06F370E0910B06E07F10910C06D091D3
:1015B0000D06C0910E06B0910F06A0911006C62E22
:1015C000D12C8AE0C80ED11C21E030E040E050E090
:1015D00060E070E080E090E00C2D0E94CD27F22AC0
:1015E000F0920906F32BF0930A06E42BE0930B0626
:1015F000152B10930C06D62BD0930D06C72BC0933A
:101600000E068B2B80930F069A2BC4CFF090090601
:1016100010910A06F0910B06FF70E0910C06E07C39
:10162000D0910D06C0910E06B0910F06A091100644
:10163000C62ED12C84E1C80ED11C21E030E040E060
:1016400050E060E070E080E090E00C2D0E94CD273B
:10165000F22AF0920906132B10930A06F42BF0934A
:101660000B06E52BE0930C066D2B60930D067C2B8F
:1016700070930E06C6CFB0910906A0910A06F091AC
:101680000B06F0900C06E0910E06EC7FD0910F0651
:10169000C091100610E0005E1F4F21E030E040E0F6
:1016A00050E060E070E080E090E00E94CD27B22B37
:1016B000B0930906A32BA0930A06F42BF0930B0614
:1016C0005F2950930C0660930D06E72BE0930E06FE
:1016D0008D2B80930F069C2B5DCFA0910906E09087
:1016E0000A06F0900B06D0910C06C0910D06F09101
:1016F0000E06F370E0910F06E07FB091100610E047
:10170000065D1F4F21E030E040E050E060E070E017
:1017100080E090E00E94CD27A22BA09309063E29ED
:1017200030930A064F2940930B065D2B50930C060D
:101730006C2B60930D06F72BF0930E068E2B809387
:101740000F069B2B27CF80918E03811108C088E55F
:1017500080938C0310928D0381E080938E0360E070
:101760008AE00E94070590918C0380918D039CBDB7
:101770008DBDE1E1F6E082918EBD00000DB407FE63
:10178000FDCF8EB586E0E930F807A9F761E08AE081
:101790000C9407052F923F924F925F926F927F9227
:1017A0008F929F92AF92BF92CF92DF92EF92FF9271
:1017B0000F931F93CF93DF9300D01F92CDB7DEB767
:1017C0000091090610910A0680910B068C83809186
:1017D0000C068B8330900D0620900E0680910F062C
:1017E0008983809110068A8380910E0490910F0462
:1017F0008230910509F487C08330910509F4D4C083
:10180000019739F50E94C5068090FA039090FB037A
:10181000A090FC03B090FD03681579058A059B052F
:10182000C0F0C0908803D0908903E0908A03F090C4
:101830008B038CE3C816D104E104F104A8F11092E3
:1018400088031092890310928A0310928B031092DE
:1018500010040093090610930A068C8180930B06EE
:101860008B8180930C0630920D0620920E068981A2
:1018700080930F068A81809310060F900F900F902F
:101880000F90DF91CF911F910F91FF90EF90DF901C
:10189000CF90BF90AF909F908F907F906F905F9010
:1018A0004F903F902F9008958091E8039091E90325
:1018B000A091EA03B091EB03880D991DAA1DBB1DF1
:1018C0008093FA039093FB03A093FC03B093FD0372
:1018D000C701B6012AE030E040E050E00E94A023BA
:1018E000822F0E94430A0E94A30B8FEFC81AD80AC6
:1018F000E80AF80AC0928803D0928903E0928A032A
:10190000F0928B03A6CF0E94C506C090FA03D09038
:10191000FB03E090FC03F090FD036C157D058E0544
:101920009F0508F496CF8091E8039091E903A09178
:10193000EA03B091EB038C0D9D1DAE1DBF1D80937E
:10194000FA039093FB03A093FC03B093FD03C090B4
:101950008803D0908903E0908A03F0908B03C7013D
:10196000B60124E630E040E050E00E94A0236A3057
:1019700071058105910508F4B3CF2F5F3F4F4F4F9D
:101980005F4FA4E6B0E00E94C22328E532E040E0C9
:1019900050E00E94A0236093880370938903809392
:1019A0008A0390938B0353CF0E94C5068090FA035D
:1019B0009090FB03A090FC03B090FD03681579059F
:1019C0008A059B0508F445CFC0908803D090890311
:1019D000E0908A03F0908B038AE0C816D104E104FA
:1019E000F10408F02CCF8091E8039091E903A091D5
:1019F000EA03B091EB03880D991DAA1DBB1D8093CE
:101A0000FA039093FB03A093FC03B093FD03C7017B
:101A1000B6016B5F7F4F8F4F9F4F2AE0422E512CB4
:101A2000612C712CA30192010E94A0234B015C0147
:101A3000A701960160EA76E881E090E00E94902399
:101A4000860E971EA81EB91EC701B6016D5F7F4F97
:101A50008F4F9F4FA30192010E94A0239B01AC01D5
:101A6000A0E1B7E20E94C223860E971EA81EB91EEF
:101A7000C701B601675F7F4F8F4F9F4FA301920150
:101A80000E94A0239B01AC01A4E6B0E00E94C22307
:101A9000860E971EA81EB91EC701B6016A5F7F4F4A
:101AA0008F4F9F4FA30192010E94A0239B01AC0185
:101AB000A8EEB3E00E94C223860E971EA81EB91E90
:101AC000C701B6016E5F7F4F8F4F9F4FA3019201F9
:101AD0000E94A0239B01AC01AAE0B0E00E94C223B7
:101AE000680D791D8A1D9B1D0E94C001FCCE0F93BD
:101AF0001F93AAE0B5E000E0FD018D918A3211F05C
:101B00000827FACF81818823B9F082818823A1F048
:101B10008381811111C040E150E070E060E0CF01AD
:101B200001960E94F42110E030E020E041E0061729
:101B300017072807390709F040E0842F1F910F91FC
:101B40000895EF92FF920F931F93CF93DF937C0141
:101B5000C62F6CE270E089E095E00E941C298C01A0
:101B60000F5F1F4F49F4F7011082DF91CF911F9152
:101B70000F91FF90EF9008956CE270E0C8010E9411
:101B80001C29CC2311F0C150EACF009729F46AE256
:101B900070E0C8010E941C29EC01C01BD10BAE01F2
:101BA000B801C7010E942729CE0DDF1D1882DDCFA5
:101BB000FB0101900020E9F73197AF01461B570B5D
:101BC0000C94B9028F929F92AF92BF92EF92FF92C4
:101BD0000F931F93CF93DF93CDB7DEB7A1970FB6C7
:101BE000F894DEBF0FBECDBF7C01FA01CB0119A274
:101BF000223008F42AE08E010F5D1F4F822E912CB7
:101C0000B12CA12CBF01A50194010E94A023F901D0
:101C1000CA016A300CF5605DD8016E938D01232BEB
:101C2000242B252B79F790E080E0109721F0BD015F
:101C3000C7010E94D80DA1960FB6F894DEBF0FBE63
:101C4000CDBFDF91CF911F910F91FF90EF90BF908B
:101C5000AF909F908F900895695CDECF0F931F9394
:101C6000CF93DF93EC010E94D80D8C0166EE72E0F9
:101C7000CE010E94D80D800F911FDF91CF911F914F
:101C80000F9108950C94D80DCF92DF92EF92FF92AE
:101C90000F931F93CF93DF937C01EB011991812F59
:101CA000012E000C990B0E946723892BB9F709912B
:101CB000802F002E000C990B0E946723892BB9F707
:101CC00080E090E00D3349F56E018FEFC81AD80A15
:101CD0008881082E000C990B0E946723892B69F4D8
:101CE000143669F01F3611F1123679F4CE010E94D4
:101CF0002223F701968B858B08C0E601E5CFCE0144
:101D00000E942223F701938B828BCE0129912C32E2
:101D100021F02A3311F02111F8CFDF91CF911F91DB
:101D20000F91FF90EF90DF90CF900895CE010E9429
:101D30002223F701848BE9CF85ED8093BC0080914D
:101D4000E1049091E204A091E304B091E4040796C9
:101D5000A11DB11D23E0B695A795979587952A9566
:101D6000D1F72091BC0024FD03C01092DF04089538
:101D70004091E1045091E2046091E3047091E40425
:101D8000452B462B472B69F30097A105B10541F080
:101D900025E32A95F1F700000197A109B109E1CFE8
:101DA0008091E0040C9416071F920F920FB60F92C9
:101DB00011240BB60F922F933F934F935F936F9322
:101DC0007F938F939F93AF93BF93EF93FF9381E1A3
:101DD00096E00E94BB03FF91EF91BF91AF919F915D
:101DE0008F917F916F915F914F913F912F910F90C4
:101DF0000BBE0F900FBE0F901F9018951F920F9261
:101E00000FB60F9211240BB60F922F938F939F93BF
:101E1000EF93FF93E0912106F09122068081E091FB
:101E20002706F091280682FD1DC0908180912A0628
:101E30008F5F8F7320912B06821741F0E0912A0665
:101E4000F0E0EF5EF94F958F80932A06FF91EF91B6
:101E50009F918F912F910F900BBE0F900FBE0F90FF
:101E60001F9018958081F2CF1F920F920FB60F929C
:101E700011240BB60F922F933F934F935F936F9361
:101E80007F938F939F93AF93BF93EF93FF938EEACC
:101E900096E00E94BB03FF91EF91BF91AF919F919C
:101EA0008F917F916F915F914F913F912F910F9003
:101EB0000BBE0F900FBE0F901F9018951F920F92A0
:101EC0000FB60F9211240BB60F922F938F939F93FF
:101ED000EF93FF93E091BE06F091BF068081E09101
:101EE000C406F091C50682FD1DC090818091C70691
:101EF0008F5F8F732091C806821741F0E091C7066B
:101F0000F0E0E255F94F958F8093C706FF91EF916E
:101F10009F918F912F910F900BBE0F900FBE0F903E
:101F20001F9018958081F2CF1F920F920FB60F92DB
:101F300011242F933F938F939F93AF93BF938091DF
:101F4000DB039091DC03A091DD03B091DE033091BF
:101F5000DA0323E0230F2D3758F50196A11DB11D9B
:101F60002093DA038093DB039093DC03A093DD03DB
:101F7000B093DE038091DF039091E003A091E10331
:101F8000B091E2030196A11DB11D8093DF039093F0
:101F9000E003A093E103B093E203BF91AF919F915F
:101FA0008F913F912F910F900FBE0F901F9018951A
:101FB00026E8230F0296A11DB11DD2CF1F920F92CA
:101FC0000FB60F9211240BB60F922F933F934F939E
:101FD0005F936F937F938F939F93AF93BF93EF9391
:101FE000FF938091B900887F803609F44DC008F0D6
:101FF00040C0883209F4A9C028F5803109F49DC099
:10200000C8F4882309F4FBC0883009F496C0FF9116
:10201000EF91BF91AF919F918F917F916F915F9160
:102020004F913F912F910F900BBE0F900FBE0F90CD
:102030001F901895883109F488C0803241F7809349
:10204000DD0414C0803409F49DC040F48033B9F33A
:102050008833E9F68093DD0485ECB0C0803509F45F
:1020600085C0883509F496C0883489F60E949C0E94
:10207000CECF883909F48CC038F5883729F050F470
:10208000883611F0803719F683E08093DF041092D0
:10209000D90357C0883809F47BC0803919F08038DB
:1020A00009F0B5CF8091D903803208F071C0E0917A
:1020B000D90381E08E0F8093D9038091BB00F0E0BB
:1020C000E754FC4F80833DC0803B39F0E0F4803A18
:1020D00009F479C0883A09F09ACF84E08093DF044C
:1020E0001092B8031092B703E091E603F091E70372
:1020F00019958091B70381110FC081E08093B703D8
:102100001092970309C0803C09F4A6CF883C09F4DB
:10211000A3CF883B09F07BCFE091B80381E08E0F1D
:102120008093B803F0E0E956FC4F80818093BB00B8
:102130009091B8038091B70329C08091BA0480932D
:10214000BB0085EC8093BC0062CF9091DC04809151
:10215000DB04981758F5E091DC0481E08E0F809342
:10216000DC04F0E0E554FB4F8081E9CFE091DC0432
:1021700081E08E0F8093DC048091BB00F0E0E55499
:10218000FB4F80839091DC048091DB049817C8F2A8
:1021900085E8D8CFE091DC0481E08E0F8093DC04E9
:1021A0008091BB00F0E0E554FB4F80838091DE041A
:1021B00081115CCF81E08093B90484EA8093BC00F4
:1021C0001092DF0424CF85EC8093BC001092DF04D2
:1021D0008091D903803230F4E091D903F0E0E754E4
:1021E000FC4F10826091D90370E0E091E403F0911C
:1021F000E50389EB93E019951092D90308CF10926B
:10220000DD0434CF1F920F920FB60F9211240BB63C
:102210000F922F933F938F939F93AF93BF93EF931F
:10222000FF938091310490913204A0913304B091D6
:1022300034040097A105B10541F13091EC03E09120
:10224000ED03F091EE032081232720831816190651
:102250001A061B061CF40197A109B10980933104E9
:1022600090933204A0933304B0933404FF91EF9120
:10227000BF91AF919F918F913F912F910F900BBE86
:102280000F900FBE0F901F901895209170002D7F1A
:10229000209370002091EC03E091ED03F091EE03A8
:1022A0003081209523232083D9CF1F920F920FB620
:1022B0000F9211240BB60F928F939F93AF93BF93FE
:1022C000EF93FF938091350490913604A0913704E9
:1022D000B0913804892B8A2B8B2BB1F19091EF03AD
:1022E000E091F003F091F103808189278083809150
:1022F000350490913604A0913704B0913804181633
:1023000019061A061B069CF4809135049091360438
:10231000A0913704B09138040197A109B1098093C5
:10232000350490933604A0933704B0933804FF919A
:10233000EF91BF91AF919F918F910F900BBE0F9036
:102340000FBE0F901F90189580916F008D7F809326
:102350006F008091EF03E091F003F091F103908121
:10236000809589238083E3CF1F920F920FB60F923F
:1023700011240BB60F928F939F93AF93BF93EF935C
:10238000FF938091390490913A04A0913B04B0915D
:102390003C04892B8A2B8B2BB1F19091F203E091B5
:1023A000F303F091F40380818927808380913904BD
:1023B00090913A04A0913B04B0913C041816190680
:1023C0001A061B069CF48091390490913A04A0915E
:1023D0003B04B0913C040197A109B10980933904F1
:1023E00090933A04A0933B04B0933C04FF91EF9187
:1023F000BF91AF919F918F910F900BBE0F900FBE29
:102400000F901F90189580916E008D7F80936E00C5
:102410008091F203E091F303F091F40390818095B1
:1024200089238083E3CF109214061092130688EE5E
:1024300093E0A0E0B0E08093150690931606A09379
:102440001706B09318062EE332E03093120620935D
:1024500011064DEC50E050931E0640931D064CECC7
:1024600050E05093200640931F0648EC50E05093F4
:1024700022064093210649EC50E0509324064093F5
:1024800023064AEC50E050932606409325064EEC76
:1024900050E0509328064093270610922A06109287
:1024A0002B0610922C0610922D061092B106109257
:1024B000B0068093B2069093B306A093B406B0938F
:1024C000B5063093AF062093AE0625EC30E030938E
:1024D000BB062093BA0624EC30E03093BD0620936F
:1024E000BC0620EC30E03093BF062093BE0621EC02
:1024F00030E03093C1062093C00622EC30E03093E8
:10250000C3062093C20626EC30E03093C506209324
:10251000C4061092C7061092C8061092C9061092FF
:10252000CA0610924E0710924D0780934F07909362
:102530005007A0935107B093520780E592E0909323
:102540004C0780934B071092580710925F07109228
:10255000660710926707109268071092690781E07A
:1025600080936507809362071092630792E09093CF
:1025700064078093570788E190E090935C0780930D
:102580005B070E94EF279093610780936007009795
:1025900089F128E1FC0111922A95E9F788E090E0A1
:1025A00090935A078093590786E090E090935E07D6
:1025B00080935D0780915807882341F061E086E0B1
:1025C0000E94350560E086E00E940705E5EDF2E037
:1025D000E491F0E0EE0FFF1FEB54FD4F85919491D5
:1025E00090936B0780936A07E5E7F2E0E491E0934C
:1025F0006C07089510925C0710925B0710925A07BF
:1026000010925907D1CFCF93DF93CDB7DEB7AD97F7
:102610000FB6F894DEBF0FBECDBF789484B582604C
:1026200084BD84B5816084BD85B5826085BD85B576
:10263000816085BD80916E00816080936E001092F4
:10264000810080918100826080938100809181006F
:102650008160809381008091800081608093800000
:102660008091B10084608093B1008091B00081605E
:102670008093B0008091910082608093910080915E
:10268000910081608093910080919000816080939F
:1026900090008091A10082608093A1008091A100B0
:1026A00081608093A1008091A00081608093A00050
:1026B00080912101826080932101809121018160BC
:1026C000809321018091200181608093200180917D
:1026D0007A00846080937A0080917A00826080938F
:1026E0007A0080917A00816080937A0080917A00EC
:1026F000806880937A001092C10026E040E054E8A0
:1027000063E070E08EEA96E00E94590361EC72E0AB
:102710008EEA96E00E94D80D61E08AE00E943505BD
:1027200080915D0790915E0797FD08C061E00E946F
:10273000350560E080915D070E94070581E0809388
:10274000580760915F07633329F12091600730914A
:1027500061076150C9F070E08FEF92E30E94762725
:10276000F90140915B0750915C07CF01821B930BED
:102770008417950760F44081469FC001479F900DE4
:10278000112490833196EDCF70E060E0E9CF83E3D0
:1027900080935F0760E08AE00E9407051FB7F89406
:1027A0008091E303811127C0E4E0F3E08491E4EA3F
:1027B000F2E09491E82FF0E0EE0FFF1FEE5AFD4F8C
:1027C000A591B491EC91E92321F461E085E30E94A5
:1027D000070561E085E30E9435058CB580618CBDFD
:1027E0008CB580648CBD61E084E30E94350561E0B6
:1027F00083E30E9435058091E3038F5F8093E303B9
:102800001FBF10927104109270041092E60410928F
:1028100008050E94F80687EB92E09093E703809307
:10282000E60388EB92E09093E5038093E403109233
:102830004F041092500410925104109253041092BD
:1028400054041092550410924104109242041092C4
:102850004304109244041092090586E080935A04C0
:102860001092560410925704109258041092590472
:1028700010925D0481E196E090935C0480935B0488
:1028800010925F0410925E0487E08093450481E01B
:1028900080934A04E1E1F4E080E2DF011D928A9531
:1028A000E9F7E0E6F4E080E1DF011D928A95E9F7BF
:1028B00062E088E30E94350562E087E30E94350507
:1028C00062E086E30E94350583E090E090930F0478
:1028D00080930E0480E69AEEA0E0B0E08093FE03C1
:1028E0009093FF03A0930004B093010484EF91E060
:1028F000A0E0B0E08093E8039093E903A093EA039B
:10290000B093EB0381E090E0909393048093920462
:1029100088EF809394041092B6048091F50383307D
:1029200008F0B0C092E090939504E82FF0E0E459ED
:10293000FD4FE491E09396048F5F8093F503E130BF
:1029400009F452C080F1E23009F475C084E090E0EF
:102950009093A8048093A70486E08093A9048FE352
:1029600090E09093AB048093AA04EEE5EE2EE2E0B3
:10297000FE2E8701F8018081882309F48DC057015C
:102980007501D501DC90BFEFAB1ABB0A8D2D0D2C64
:10299000000C990B0E946723892B91F7D11076C008
:1029A000F8011082E7CF14BC15BC84B5826084BDE9
:1029B00085B5816085BD8091950490E0FC01E1536F
:1029C000FD4FE491F0E0EE0FFF1FEB54FD4F25911A
:1029D00034913093F4032093F303FC01E159FD4F4C
:1029E000E491E093F203B2CF109280001092810044
:1029F0008091810088608093810080918100816056
:102A0000809381008091950490E0FC01E153FD4F9B
:102A1000E491F0E0EE0FFF1FEB54FD4F2591349150
:102A20003093F1032093F003FC01E159FD4FE49151
:102A3000E093EF038BCF1092B0001092B100809121
:102A4000B00082608093B0008091B100816080937B
:102A5000B1008091950490E0FC01E153FD4FE491B9
:102A6000F0E0EE0FFF1FEB54FD4F259134913093B2
:102A7000EE032093ED03FC01E159FD4FE491E09357
:102A8000EC0364CF8FEF8093960460CF7501D8017B
:102A9000DC920F5F1F4F6ECF85E792E09093B804F2
:102AA0008093B70467E672E085E994E00E94440EE3
:102AB000FC0120812C3211F00C94BF1EBC016F5F11
:102AC0007F4FF2CF80910E0490910F04892B09F46F
:102AD0005FC00E94C50600910A0410910B0420916A
:102AE0000C0430910D04601771078207930708F4F6
:102AF0004FC08091090680958093020480910A0658
:102B000080958093030480910B0680958093040444
:102B100080910C0680958093050480910D06809528
:102B20008093060480910E0680958093070480911F
:102B30000F068095809308048091100680958093FD
:102B400009040E94C5060091FE031091FF03209125
:102B5000000430910104DC01CB01800F911FA21F02
:102B6000B31F80930A0490930B04A0930C04B093BA
:102B70000D0481E0809310040E94C5066093FA035F
:102B80007093FB038093FC039093FD030C94C51E8C
:102B90002091090630910A0640910B0650910C06CF
:102BA00060910D0670910E06A0900204B09003048F
:102BB000C0900404D0900504E0900604F09007044F
:102BC000009108041091090480910F06909110065D
:102BD0000E94E62711F40C94C71E0E94C5060091BE
:102BE000F6031091F7032091F8033091F903601B6D
:102BF000710B820B930B643171058105910510F403
:102C00000C94C71E809109068093020480910A06E5
:102C10008093030480910B068093040480910C063A
:102C20008093050480910D068093060480910E0622
:102C30008093070480910F0680930804809110060A
:102C4000809309040E94C5066093F6037093F7030E
:102C50008093F8039093F9030E94A30B0C94C71E72
:102C600081E090E069312CEF720714F490E080E08D
:102C70009195819591090C94FB1E82319D4F14F022
:102C80000C940C1F10830C940C1F75010C94A21F44
:102C90002091A7043091A80450E040E00C94D21F8A
:102CA00067010C940C20C7010E9422232CE0AC0188
:102CB000249FC001259F900D1124A80EB91E9701D5
:102CC00079012F5F3F4FD7018C91082E000C990B93
:102CD000C0970A97A8F30C949820EFEFCE16D10472
:102CE000E104F10409F00CF47AC068E478EE81E0C4
:102CF00090E0A50194010E949E2769017A01F1E00C
:102D0000CF1AD108E108F10884E011110C949B213D
:102D100083E09FEFC916D104E104F104F9F0F4F067
:102D200062E17AE780E090E0A50194010E949E278D
:102D300069017A0161E0C61AD108E108F1088FEF54
:102D4000C816D104E104F10419F010F00C94D0215C
:102D500084E004C081E011110C94C82195B5987FDE
:102D6000892B85BD2CA13DA14EA15FA12115310567
:102D70004105510509F466C0A8A5B9A5AA0FBB1F56
:102D80000E94C22328EE33E040E050E00E94A023DE
:102D9000113009F45BC0123009F46AC011110EC081
:102DA000C7BC2093390430933A0440933B045093BA
:102DB0003C0480916E00826080936E00F101CF012F
:102DC00021912C3211F40C94E1212111F8CF90E0E3
:102DD00080E09093AD048093AC040C94391F82E0A2
:102DE000BACF60E072E18AE790E0A50194010E9409
:102DF0009E2769017A0181E0C81AD108E108F1082B
:102E0000C114D10491E0E906F1045CF491E01130C1
:102E100009F0A8CF80918100887F892B8093810061
:102E2000A1CF68E478EE81E090E0A50194010E94D2
:102E30009E2769017A01A1E0CA1AD108E108F108C8
:102E400093E0E5CF2FEF3FEFA901A2CFD092890009
:102E5000C0928800209335043093360440933704A1
:102E60005093380480916F00826080936F00A6CFEA
:102E7000C092B30020933104309332044093330462
:102E8000509334048091700082608093700096CFDC
:102E9000113079F0123099F0111105C080916E0057
:102EA0008D7F80936E0060E0809195040E940705FD
:102EB00085CF80916F008D7F80936F00F4CF8091DC
:102EC00070008D7F80937000EECF80914A0488233C
:102ED00009F473C0C0905B04D0905C0410924A0463
:102EE0000E94C5066093460470934704809348048B
:102EF00090934904E0904504F12C4FEFE41AF40A52
:102F000057E0E522FF24E0924504C6010E94370302
:102F1000F701F595E795F595E795E85CFD4F10818C
:102F2000EE2DE37064E0E69FF0011124E85DFD4FB3
:102F3000C080D180E280F380212FB701A60180916B
:102F40005B0490915C040E94590369EE72E08EEA82
:102F500096E00E94420E66E273E08EEA96E00E94DE
:102F6000420E2AE0B701A6018EEA96E00E94E20D29
:102F70006FEF72E08EEA96E00E94420E62E073E02C
:102F80008EEA96E00E94420E412F50E070E060E031
:102F90002AE08EEA96E00E94E20D65EE72E08EEA8B
:102FA00096E00E94420E1092090510924104109280
:102FB0004204109243041092440477247394812CA9
:102FC000912C5401839480915B0490915C04DC010A
:102FD000ED91FC910084F185E02D1995892B09F480
:102FE000CCC080915B0490915C04DC01ED91FC917C
:102FF0000284F385E02D1995182F8432A9F40E94DC
:10300000C5066093460470934704809348049093E8
:103010004904109309058092410490924204A092C1
:103020004304B0924404CFCF809141049091420474
:10303000A0914304B09144040097A105B10519F291
:103040001D3019F01A3009F075C0875F9A4FFC01E6
:10305000108280910905843209F0B5CF0E94770D66
:10306000882309F4B0CF1091450469E075E08EEA39
:1030700096E00E942E0E6AE073E08EEA96E00E94CF
:10308000420E65E273E08EEA96E00E94420EE12F66
:10309000E77024E0E29FF0011124E85DFD4FC0805D
:1030A000D180E280F3802AE0B701A6018EEA96E0A3
:1030B0000E94E20D6FEF72E08EEA96E00E94420EEF
:1030C00062E073E08EEA96E00E94420E13FB112745
:1030D00010F91CA71DA6ECA5FDA5E85CFD4F10810D
:1030E000412F50E070E060E02AE08EEA96E00E9416
:1030F000E20D65EE72E08EEA96E00E94420E66EE08
:1031000072E08EEA96E00E94D80D109209051092A6
:103110004104109242041092430410924404C0925D
:103120005604D0925704E0925804F0925904109338
:103130005A0449CF8F3F9105A105B10598F4AC0120
:10314000BD014F5F5F4F6F4F7F4F409341045093DE
:1031500042046093430470934404875F9A4FDC01F8
:103160001C9331CF109241041092420410924304F8
:103170001092440470924A0426CF0E94C506C09063
:103180004604D0904704E0904804F09049046C193C
:103190007D098E099F09693E73408105910518F0EC
:1031A00081E080934A040E94C506C0900002D0903E
:1031B0000102E0900202F09003026C197D098E0971
:1031C0009F09613477478B41910560F080915E04DF
:1031D00090915F048130910529F008F439C202977B
:1031E00009F457C20E94C506C0900402D09005029F
:1031F000E0900602F09007026C197D098E099F0984
:10320000693C71058105910508F4B7C50E94C506A2
:103210006093040270930502809306029093070264
:103220007E0181E1E80EF11C87E0D7011D928A95AD
:10323000E9F781E08093E50488E680930705109222
:10324000E6041092080560E08BE497E00E947508A0
:103250000E9437070E9471054B015C018091DF04D9
:10326000811123C381E08093DF048093DE049FEF0C
:103270009093DD041092DC0496E09093DB0480933D
:10328000BA048091BA04806D8093BA048091B90425
:10329000813009F0B1C31092B9040E9471054B014D
:1032A0005C018091BA048093BB008091E10490910D
:1032B000E204A091E304B091E404892B8A2B8B2BC8
:1032C000A1F00E9471054090E1045090E2046090EA
:1032D000E3047090E404681979098A099B09461689
:1032E00057066806790608F401C38091BC0083FD87
:1032F000D8CF85EC8093BC000E9471054B015C0126
:103300008091DF04813009F479C38091DC04873037
:1033100008F096C38091DC04ABEBB4E0E2E7F4E0A4
:1033200090E0981709F4E7C22D9121939F5FF9CFA0
:1033300040914104509142046091430470914404CF
:10334000411551056105710509F4A7C58D30910539
:1033500021F08A30910509F061C1475F5A4FDA01C7
:103360001C9280910C05823591F480910D058D346D
:1033700071F480910E05833451F4809109058432F3
:1033800089F06CE273E08EEA96E00E942E0E1092B5
:1033900009051092410410924204109243041092C5
:1033A00044047BC520913D0430913E0440913F048C
:1033B000509140042CA33DA34EA35FA30E94770D20
:1033C0008823F9F261E0CE0181960E94A10D89A1C6
:1033D0008134E9F66AE473E08EEA96E00E94420ED8
:1033E00069E075E08EEA96E00E942E0ED601E0E1DB
:1033F0001D92EA95E9F760E0C6010E94A10D898956
:10340000882329F2C6017C01DC012C91019622233C
:1034100021F02E32C1F71C927C01F701C7010396FF
:103420002191211104C0DF01119720E32C938E1705
:103430009F07B1F7D70113961C9268E08BA1902FDC
:103440000E94A10D8981882309F4A1CFC6010E94A1
:1034500040232B013C018BA1902F0E9440234B0164
:103460005C01C7010E9422237C01C301B20124E652
:1034700030E040E050E00E949E2760934F04CA0174
:10348000B90124E630E040E050E00E949E276093BE
:103490005004C301B20120E137E240E050E00E9455
:1034A0009E2720935104C501B40120E137E240E09A
:1034B00050E00E949E2729013A0120935304C50140
:1034C000B40124E630E040E050E00E949E27162F31
:1034D000CA01B90124E630E040E050E00E949E2796
:1034E0004B015C01609354048EE1810F809355047D
:1034F0008E51990B092E000CAA0BBB0B9924AA2400
:10350000BB24552466247724E3E08E169104A1049D
:10351000B10454F4FCE08F0E911CA11CB11C019766
:10352000A109B10908F471C024E130E040E050E0A5
:1035300061E0461A510861087108480E591E6A1E5A
:103540007B1E62E0B695A795979587956A95D1F70A
:10355000840D951DA61DB71D29013A0172E07694D0
:103560006794579447947A95D1F7480E591E6A1E6E
:103570007B1EA5E0B0E00E94C223460E571E681EC7
:10358000791EA50194012F5F3F4F4F4F5F4FADE074
:10359000B0E00E94C22325E030E040E050E00E940D
:1035A000A023C301B201620F731F841F951F27E080
:1035B00030E040E050E00E94A0236F5F609352042F
:1035C000C701FF0CAA0BBB0B2CA13DA14EA15FA113
:1035D000281B390B4A0B5B0BDA01C90180934B04A2
:1035E00090934C04A0934D04B0934E0430925F042A
:1035F00020925E0480915D048111C9CE80915B04AC
:1036000090915C040E943703C2CE23E130E040E099
:1036100050E083E690E0A0E0B0E08ACF4F3751055C
:103620006105710508F0B5CE4A015B013FEF831AD1
:10363000930AA30AB30A8092410490924204A09292
:103640004304B0924404475F5A4FDA018C9325C477
:1036500080915D04811110C040915604509157042F
:10366000609158047091590420915A0480915B0430
:1036700090915C040E94590381E090E090935F0474
:1036800080935E0469E673E08EEA96E00E942E0E57
:10369000A9CD0E94C5066093000270930102809339
:1036A00002029093030210925F0410925E048091D4
:1036B0004F04898B809150048A8B809151048B8BAD
:1036C000809153048D8B809154048E8B809155048E
:1036D0008F8B809152048C8BCE0141960E94A7085B
:1036E0006CA37DA38EA39FA30E94C506C0904B042C
:1036F000D0904C04E0904D04F0904E049B01AC013E
:103700002C193D094E095F0969017A0158EE852E91
:1037100053E0952EA12CB12CC701B601A50194014F
:103720000E94A023861A970AA80AB90A0E94710566
:103730002B013C010E9471056419750986099709DE
:10374000683E734081059105A8F331E0831A910822
:10375000A108B10848EE440E43E0541E611C711CE0
:1037600081149104A104B10429F78CA09DA0AEA0FE
:10377000BFA06FEF861A960AA60AB60AC701B6015D
:1037800028EE33E040E050E00E94A023820E931E1A
:10379000A41EB51E4BA1502FC501B4010E9467099C
:1037A00081E08093E50488E6809307051092E604A3
:1037B0001092080560E08BE497E00E94750889810B
:1037C0001AE0612F0E946A278295807F682F690F17
:1037D0008BE497E00E9475088A81612F0E946A2716
:1037E0008295807F682F690F8BE497E00E947508AF
:1037F0008B81612F0E946A278295807F682F690FD5
:103800008BE497E00E9475088C818150612F0E94A3
:103810006A278295807F682F690F8BE497E00E946A
:1038200075088D81612F0E946A278295807F682F9D
:10383000690F8BE497E00E9475088E81612F0E94CA
:103840006A278295807F682F690F8BE497E00E943A
:1038500075088F8164E60E946A27892F612F0E9474
:103860006A278295807F682F690F8BE497E00E941A
:1038700075080E9437076EE773E08EEA96E00E94B3
:10388000420E2AE0B501A4018EEA96E00E94E20D04
:1038900066EE72E08EEA96E00E94D80D66EE72E067
:1038A0008EEA96E00E94D80D9DCC8091E104909123
:1038B000E204A091E304B091E404892B8A2B8B2BC2
:1038C00009F4CCCC0E9471054090E1045090E204D0
:1038D0006090E3047090E404681979098A099B09EF
:1038E000461657066806790608F0B8CC8091E004C1
:1038F0000E94160780E010927104809370048BE49C
:1039000097E00E942E08982F9F7792959F701AE05B
:103910008F70919F800D112489838BE497E00E9422
:103920002E08982F9F7792959F708F70919F800D92
:1039300011248A838BE497E00E942E08982F9F73AE
:1039400092959F708F70919F800D11248B838BE4D3
:1039500097E00E942E0887708F5F8C838BE497E03E
:103960000E942E08982F9F7392959F708F70919F41
:10397000800D11248D838BE497E00E942E0884FB38
:10398000992790F98F70919F800D11248E838BE47D
:1039900097E00E942E089C0144E0359527954A95B2
:1039A000E1F72F7033278F70129F800D11248F83C2
:1039B0008BA1902F0E94A7084091940420E13EE043
:1039C00042034001439F900C1124092C000CAA08CB
:1039D000BB08860E971EA81EB91E20919204309136
:1039E00093042130310571F12230310509F400C111
:1039F00080E090E0DC013AC085EE7CCC8091E1046F
:103A00009091E204A091E304B091E404892B8A2B05
:103A10008B2B09F475CC0E9471054090E104509005
:103A2000E2046090E3047090E404681979098A095B
:103A30009B09461657066806790608F061CC56CFF2
:103A400087E06ACC4BA1502FC501B4010E946709E1
:103A50008E819DEF980F993058F69CEF980F973014
:103A600008F043C080E19EE0A0E0B0E0BC01CD01E1
:103A7000680D791D8A1D9B1DA7010E946709809111
:103A80006004811141C18091610481113DC1809127
:103A90006204811139C12B8930E0A0E1B7E20E94B4
:103AA000CD232989620F711D811D911D0A89B4E6FC
:103AB0000B9F80011124012E000C220B330B600F91
:103AC000711F821F931F0E94C00160E080E00E946E
:103AD0009605298990910C068091100620FD14C24C
:103AE0009F7390930C068F7313C2833009F040C00C
:103AF0002D81283008F47CCF2F3008F0B3CF8F8190
:103B000090E08E54984F64E670E00E948A27AC01E2
:103B10004F5E5F4F9595879595958795840F951F77
:103B2000AB015595479555954795840F951F35E001
:103B3000369FA001379F500D1124840F951F0197C8
:103B400067E070E00E948A2731E0380F8FE090E054
:103B5000831B910930E0281739070CF449CF8217ED
:103B600093070CF47FCF8B81823008F07BCF40CF5E
:103B70008B3009F03DCF2D81283008F039CF8F816F
:103B800090E08E54984F64E670E00E948A27AC0162
:103B9000455C5F4F9595879595958795840F951F03
:103BA000AB015595479555954795840F951F35E081
:103BB000369FA001379F500D1124840F951F019748
:103BC00067E070E00E948A2731E0380F88E090E0DB
:103BD000831B910930E0281739070CF443CF821773
:103BE00093070CF405CF8B81823008F43BCF00CFD4
:103BF0004BA1502F0E9467098E819DEF980F98303E
:103C000008F0F6CE9CEF980F963008F42BCF833057
:103C1000E1F52D81293108F4EBCE8F8190E08E54AF
:103C2000984F64E670E00E948A27AC014E5D5F4FBA
:103C30009595879595958795840F951FAB0155951B
:103C4000479555954795840F951F35E0369FA00100
:103C5000379F500D1124840F951F019767E070E086
:103C60000E948A2731E0380F80E290E0831B91099F
:103C700030E0281739070CF4BBCE821793070CF4F9
:103C8000F1CE8B818111EECEB3CE8A3009F0B0CE69
:103C90002D81293108F4ACCE8F8190E08E54984F5D
:103CA00064E670E00E948A27AC014C5C5F4F9595FA
:103CB000879595958795840F951FAB0155954795E9
:103CC00055954795840F951F35E0369FA001379F86
:103CD000500D1124840F951F019767E070E00E943A
:103CE0008A2731E0380F80E290E0831B910930E0B1
:103CF000281739070CF4B6CE821793070CF478CE48
:103D00008B81811175CEAECE6F8970E090E080E03E
:103D10006E54784F8F4F9F4F24E630E040E050E0E4
:103D20000E94A0236B017C018D89E4E68E9FC00177
:103D30001124092E000CAA0BBB0BC80ED91EEA1EBB
:103D4000FB1E2E8930E0A0E1B7E20E94CD236C0D6E
:103D50007D1D8E1D9F1D0E94C00190910C069F73BA
:103D6000809110068F73906490930C06806480930A
:103D7000100664E68FEF0E9496050E944A04809127
:103D80001004882311F40C9462150E94CA0B88E376
:103D90000E94DE049A83898387E30E94DE049C8369
:103DA0008B8386E30E94DE049E838D8361E1C62EB1
:103DB00064E0D62EAE014F5F5F4FE0E6F4E077E1BE
:103DC000E72E74E0F72E4BA3052F11E0D6016D917D
:103DD0007D916D01DA018D919D91AD01892B11F4D9
:103DE0000C94301631E020E0683EB3E07B070CF025
:103DF00030E0832F922F860F971F960122503109B2
:103E0000D9018D939C932081222311F40C943D16AB
:103E10008F3E92400CF010823196EC14FD04B1F606
:103E20008091B604882329F10E94C506C090AE0493
:103E3000D090AF04E090B004F090B1046C197D090B
:103E40008E099F09C090B204D090B304E090B404EE
:103E5000F090B5046C157D058E059F0550F0E0903F
:103E6000AC04F090AD04E114F10409F063C01092C9
:103E7000B6048091560490915704A0915804B091D3
:103E80005904892B8A2B8B2B09F41FC86E0131E151
:103E9000C30ED11CB2E02B2E312C80915B0490918B
:103EA0005C04DC01ED91FC910084F185E02D199515
:103EB000892B09F478C980915B0490915C04DC0142
:103EC000ED91FC910284F385E02D199584329105E2
:103ED00009F02ECA84E28093090521E030E040E039
:103EE00050E02093410430934204409343045093A4
:103EF00044040E94C50660933D0470933E04809381
:103F00003F0490934004C9CF906C90930C06806C52
:103F10008093100632CFB70185E994E00E94440EE9
:103F2000DC012C912C3211F00C94E7167C013FEF50
:103F3000E31AF30AF70181918D3369F38C3211F0A2
:103F40008111F9CFD701CD905D010C2C000CDD085B
:103F5000C6010E946723892B11F00C94451620910D
:103F6000AA043091AB0450E040E060E67AEE80E0D5
:103F700090E00E949E2749015A0152E0880C991C4A
:103F8000AA1CBB1C5A95D1F7B0E3CB1AD108EAE0C2
:103F9000CE16D10410F00C944816C7010E9440239D
:103FA0009B01AC011091A904C501B4010E949E2798
:103FB00029013A014092B2045092B3046092B404D1
:103FC0007092B5046701D7012C90BFEFEB1AFB0A82
:103FD000822C022C000C9908C401C0970A9790F318
:103FE000C4010E9467235C01892B61F7EEE22E1267
:103FF00020C06701D301C201B695A7959795879513
:10400000840D951DA61DB71D8093B2049093B30433
:10401000A093B404B093B504D6018D907D01082C13
:10402000000C9908C4010E946723892B11F00C949D
:10403000501688E0E4E1F2E0ABA1B02F01900D92C0
:104040008A95E1F7BFEFCB1ADB0AC4010E9414295D
:10405000982E9FEB980F983050F4E0ECFFEFEC0FA8
:10406000FD1FE80FF11DA0800A2C000CBB08760193
:10407000F60181906F01882D082C000C990B0E948D
:104080006723892BA1F7F3E28F1214C02FEFA21A36
:10409000B20A67013FEFC31AD30A76014FEFC41A81
:1040A000D40AD7018C91082E000C990B0E9467232B
:1040B000892B99F7F70180818E3259F54091B2042E
:1040C0005091B3046091B4047091B504DB01CA014E
:1040D000B695A79597958795840F951FA61FB71F2F
:1040E0008093B2049093B304A093B404B093B50446
:1040F0006701FFEFCF1ADF0A76012FEFC21AD20A4B
:10410000D7018C91082E000C990B0E946723892BF4
:1041100099F7F7018081082E000C990BC0970A9738
:1041200010F40C945316FCE01F9FA00CB11C11243A
:104130001701F70111917F01812F012E000C990BBE
:104140000E946723892BA1F71E3259F54091B204D2
:104150005091B3046091B4047091B504DB01CA01BD
:10416000B695A79597958795840F951FA61FB71F9E
:104170008093B2049093B304A093B404B093B504B5
:104180007101FFEFEF1AFF0A17012FEFE21AF20A8F
:10419000D1018C91082E000C990B0E946723892B6A
:1041A00099F70E94C5066093AE047093AF048093A4
:1041B000B0049093B10410919604B0E59B1611F4ED
:1041C0000C944817E1E3AE1AB108B501BB0C880B9B
:1041D000990B0E947A249B01AC016DE77CE987E88A
:1041E0009FE30E94732517FF02C00C94DE162091F6
:1041F000B2043091B3044091B4045091B5042CA39F
:104200003DA34EA35FA320E030E04CED53E40E94B9
:10421000062520E030E040E05FE30E94DD230E94BD
:10422000492468A779A78AA79BA761E08091950494
:104230000E9435051091960448A559A54A01B12C54
:10424000A12C812F8D7F11F00C94F11660E072E1AA
:104250008AE790E0A50194010E949E2729013A0176
:104260007A01690151E0C51AD108E108F1086FEF40
:10427000C616D104E104F10409F014F40C94AA1652
:1042800060E472E48FE090E0A50194010E949E2713
:1042900069017A0181E0C81AD108E108F1081230F9
:1042A00011F00C946D1682E09FEFC916D104E10461
:1042B000F10409F00CF46CC060E970ED83E090E06B
:1042C000A50194010E949E2769017A01A1E0CA1A02
:1042D000D108E108F10883E0BFEFCB16D104E10477
:1042E000F10409F00CF454C068E478EE81E090E049
:1042F000A50194010E949E2769017A01B1E0CB1AC1
:10430000D108E108F10884E0EFEFCE16D104E10412
:10431000F104F1F1ECF164E274EF80E090E0A501CA
:1043200094010E949E2769017A0161E0C61AD108B2
:10433000E108F10885E0AFEFCA16D104E104F10409
:1043400039F130F162E17AE780E090E0A501940173
:104350000E949E2769017A01F1E0CF1AD108E10895
:10436000F10886E02FEFC216D104E104F10481F0D8
:1043700078F0730162019AE0F594E794D794C794BA
:104380009A95D1F7B1E0CB1AD108E108F10887E09E
:104390009091B100987F892B8093B1000C94B21654
:1043A000730162018AE0F594E794D794C7948A95E3
:1043B000D1F7E1E0CE1AD108E108F10885E00C94CC
:1043C000AE1601960C94E9168091600790916107F2
:1043D0000E948B2880915D0790915E0797FD03C036
:1043E00060E00C94350508953F924F925F926F9272
:1043F0007F928F929F92AF92BF92CF92DF92EF9275
:10440000FF920F931F93CF93DF935C016B017A01AF
:104410006115710519F0FB0191838083E114F104AA
:1044200051F0C7010297839730F040E030E020E080
:1044300090E06BC05E01E5012196F5011081812FAE
:1044400090E00E946723892BA9F71D3201F5219680
:10445000F501118101E0E114F10409F4E6C0F0E195
:10446000EF16F10409F088C0103359F488818F7D6C
:10447000883509F07CC0198122960260F0E1EF2EA8
:10448000F12C812C912CA12C88E0B82E92C01B32EB
:1044900021F4E5012296F501118100E0DCCFEAE08C
:1044A000EE16F10409F4C7C0F0E1EF16F10409F0CB
:1044B00073C0E7CF78E0E72EF12C812C912CA12C52
:1044C00060E1B62E76C021E0ADC0302F3170C1144E
:1044D000D10431F0222371F12197F601D183C083F9
:1044E00027FF2EC060E070E080E090E8311104C04A
:1044F0006FEF7FEF8FEF9FE722E230E030936E07A0
:1045000020936D07462F372F282F642F732F822F6C
:10451000DF91CF911F910F91FF90EF90DF90CF909F
:10452000BF90AF909F908F907F906F905F904F90D3
:104530003F90089501FF04C02297F601D183C08304
:10454000332341F090958095709561957F4F8F4F03
:104550009F4FD8CF97FFD6CF82E290E090936E071F
:1045600080936D076FEF7FEF8FEF9FE7CBCF10E367
:10457000E114F10409F49ECF28E0E216F10409F4F5
:104580009CCF0CF08CCF812C912CA12CE0E4BE2E82
:1045900082E0E816F10469F060E070E080E090E805
:1045A00097010F2C000C440B550B0E94A0234901CE
:1045B0005A0120E060E070E0CB0127010F2C000CD5
:1045C00066087708FE0150ED352E310E39E03315BF
:1045D00070F43FEB310F49EC342E3A3138F03FE9BB
:1045E000310F3A3108F071CF39EA332E310E3E14D3
:1045F0001F040CF06ACF27FD15C086169706A80683
:10460000B90678F0A30192010E949023630D711DF9
:10461000811D911D61307105810520E8920708F424
:1046200052CF2FEF21961081CDCF103309F41ECF3A
:104630002AE0E22EF12C9CEC892E982CA82C9CE0F0
:10464000B92EB7CFFC0188279927E8942191203211
:10465000E9F3293010F02E30C8F32B3241F02D321F
:1046600039F4689404C00E948523820F911D219122
:1046700020532A30C0F31EF4909581959F4F0895E2
:104680001F93FC0199278827BC01E89411911032EF
:10469000E9F3193010F01E30C8F31B3251F01D320F
:1046A00049F4689406C00E947023610F711D811D3A
:1046B000911D119110531A30B0F33EF490958095EE
:1046C000709561957F4F8F4F9F4F1F910895911166
:1046D0000C948D23803219F089508550C8F70895C5
:1046E000592F482F372F262F660F771F881F991FA6
:1046F000660F771F881F991F620F731F841F951FF6
:10470000660F771F881F991F08957AE0979F902D55
:10471000879F802D910D112408959927882708954A
:10472000DB018F939F930E94C223BF91AF91A29F01
:10473000800D911DA39F900DB29F900D112408959F
:10474000A1E21A2EAA1BBB1BFD010DC0AA1FBB1F95
:10475000EE1FFF1FA217B307E407F50720F0A21B07
:10476000B30BE40BF50B661F771F881F991F1A9474
:1047700069F760957095809590959B01AC01BD019E
:10478000CF0108950E94CD23A59F900DB49F900D59
:10479000A49F800D911D11240895A29FB001B39F85
:1047A000C001A39F700D811D1124911DB29F700D3A
:1047B000811D1124911D08955058BB27AA270E94DE
:1047C000F4230C94CC240E94BE2438F00E94C5240B
:1047D00020F039F49F3F19F426F40C94BB240EF416
:1047E000E095E7FB0C94B524E92F0E94DD2458F3F3
:1047F000BA17620773078407950720F079F4A6F5C6
:104800000C94FF240EF4E0950B2EBA2FA02D0B0173
:10481000B90190010C01CA01A0011124FF27591B05
:1048200099F0593F50F4503E68F11A16F040A22F0B
:10483000232F342F4427585FF3CF4695379527957C
:10484000A795F0405395C9F77EF41F16BA0B620B7B
:10485000730B840BBAF09150A1F0FF0FBB1F661FC2
:10486000771F881FC2F70EC0BA0F621F731F841F05
:1048700048F4879577956795B795F7959E3F08F02B
:10488000B0CF9395880F08F09927EE0F97958795ED
:1048900008950E94E52488F09F5798F0B92F992732
:1048A000B751B0F0E1F0660F771F881F991F1AF01B
:1048B000BA95C9F714C0B13091F00E94FF24B1E05D
:1048C00008950C94FF24672F782F8827B85F39F05C
:1048D000B93FCCF3869577956795B395D9F73EF4B4
:1048E00090958095709561957F4F8F4F9F4F08955C
:1048F000E89409C097FB3EF490958095709561957A
:104900007F4F8F4F9F4F9923A9F0F92F96E9BB272F
:104910009395F695879577956795B795F111F8CFAB
:10492000FAF4BB0F11F460FF1BC06F5F7F4F8F4F16
:104930009F4F16C0882311F096E911C0772321F00C
:104940009EE8872F762F05C0662371F096E8862FA4
:1049500070E060E02AF09A95660F771F881FDAF7FB
:10496000880F9695879597F9089597F99F6780E83E
:1049700070E060E008959FEF80EC089500240A94B1
:104980001616170618060906089500240A9412162A
:104990001306140605060895092E0394000C11F45D
:1049A000882352F0BB0F40F4BF2B11F460FF04C00A
:1049B0006F5F7F4F8F4F9F4F089557FD9058440F63
:1049C000551F59F05F3F71F04795880F97FB991F6E
:1049D00061F09F3F79F0879508951216130614062B
:1049E000551FF2CF4695F1DF08C0161617061806B8
:1049F000991FF1CF86957105610508940895E89493
:104A0000BB2766277727CB0197F908950E941925C0
:104A10000C94CC240E94BE2438F00E94C52420F0BF
:104A2000952311F00C94B5240C94BB2411240C9400
:104A300000250E94DD2470F3959FC1F3950F50E08F
:104A4000551F629FF001729FBB27F00DB11D639F40
:104A5000AA27F00DB11DAA1F649F6627B00DA11DE6
:104A6000661F829F2227B00DA11D621F739FB00D8C
:104A7000A11D621F839FA00D611D221F749F3327FC
:104A8000A00D611D231F849F600D211D822F762F95
:104A90006A2F11249F5750409AF0F1F088234AF072
:104AA000EE0FFF1FBB1F661F771F881F91505040DE
:104AB000A9F79E3F510580F00C94B5240C94002575
:104AC0005F3FE4F3983ED4F3869577956795B79565
:104AD000F795E7959F5FC1F7FE2B880F911D96957F
:104AE000879597F90895FA01EE0FFF1F309621057B
:104AF0003105A1F16115710561F48038BFE39B07B1
:104B000049F168949038810561F08038BFEF9B07C8
:104B100041F099234AF5FF3FE1053105210519F1DF
:104B2000E8940894E795D901AA2329F4AB2FBE2F66
:104B3000F85FD0F310C0FF5F70F4A695E0F7F73987
:104B400050F019F0FF3A38F49F779F930DD00F90F3
:104B500007FC9058089546F00C94BB2460E070E088
:104B600080E89FE308954FE79F775F934F933F93CC
:104B70002F930E946E262F913F914F915F910E943B
:104B800006250C94CB2529F416F00C94B5240C942E
:104B9000FF240C94BB240E94E524A8F39638A0F7C8
:104BA00007F80F92E8942BE33AEA48EB5FE70E949C
:104BB0001C250F920F920F924DB75EB70F920E9475
:104BC000B626E4EEF0E00E94FD254F915F91EF9153
:104BD000FF91E595EE1FFF1F49F0FE57E06844275F
:104BE000EE0F441FFA95E1F74195550B0E943026D0
:104BF0000F9007FE0C9424260895DF93CF931F9304
:104C00000F93FF92EF92DF927B018C01689406C0B4
:104C1000DA2EEF010E941925FE01E894A591259155
:104C2000359145915591A6F3EF010E94F423FE01C1
:104C30009701A801DA9469F7DF90EF90FF900F9148
:104C40001F91CF91DF9108959B01AC0160E070E06E
:104C500080E89FE30C94EA260C94B5240C945C271E
:104C60000E94E524D8F39923C9F3940F511DA3F3AF
:104C70009150504094F059F0882332F0660F771F1E
:104C8000881F91505040C1F79E3F51052CF7880F67
:104C9000911D9695879597F908955F3FACF0983EE2
:104CA0009CF0BB27869577956795B79508F4B1601A
:104CB0009395C1F7BB0F58F711F460FFE8CF6F5F12
:104CC0007F4F8F4F9F4FE3CF0C94002516F00C942D
:104CD0005C270C94BB2468940C94B5240E94E524B2
:104CE000A8F39923C1F3AEF3DF93CF931F930F93F0
:104CF000FF92C92FDD2788232AF02197660F771F9F
:104D0000881FDAF720E030E040E85FEB9FE3883966
:104D100020F0803E38F021968F770E94DD23ECE072
:104D2000F1E004C00E94DD23E9E3F1E00E94FD25EB
:104D30008B01BE01EC01FB2E6F5771097595771F32
:104D4000880B990B0E947A2428E132E741E35FE364
:104D50000E941925AF2D9801AE01FF900F911F9170
:104D6000CF91DF910E94F4230C94CC24FA01DC0152
:104D7000AA0FBB1F9B01AC01BF5728F42227332782
:104D80004427507820C0B75190F4AB2F00244695AB
:104D900037952795011CA395D2F3002071F0220FBF
:104DA000331F441FB395DAF30ED00C94DC2361302B
:104DB0007105A0E88A07B94630F49B01AC0166276B
:104DC000772788279078309621F02083318342839B
:104DD000538308950E94FE260C94CC240E94C5247F
:104DE00058F00E94BE2440F029F45F3F29F00C9453
:104DF000B52451110C9400250C94BB240E94DD2491
:104E000068F39923B1F3552391F3951B550BBB27F9
:104E1000AA2762177307840738F09F5F5F4F220F3E
:104E2000331F441FAA1FA9F335D00E2E3AF0E0E835
:104E300032D091505040E695001CCAF72BD0FE2F7F
:104E400029D0660F771F881FBB1F26173707480713
:104E5000AB07B0E809F0BB0B802DBF01FF279358CB
:104E60005F4F3AF09E3F510578F00C94B5240C94B6
:104E700000255F3FE4F3983ED4F3869577956795D8
:104E8000B795F7959F5FC9F7880F911D9695879500
:104E900097F90895E1E0660F771F881FBB1F62171F
:104EA00073078407BA0720F0621B730B840BBA0BDD
:104EB000EE1F88F7E09508959F3F31F0915020F460
:104EC000879577956795B795880F911D96958795E6
:104ED00097F90895991B79E004C0991F961708F077
:104EE000961B881F7A95C9F780950895AA1BBB1B4E
:104EF00051E107C0AA1FBB1FA617B70710F0A61BDA
:104F0000B70B881F991F5A95A9F780959095BC01FA
:104F1000CD01089597FB072E16F4009407D077FD76
:104F200009D00E94762707FC05D03EF49095819524
:104F30009F4F0895709561957F4F0895052E97FBBB
:104F40001EF400940E94B52757FD07D00E94A023AD
:104F500007FC03D04EF40C94B5275095409530953E
:104F600021953F4F4F4F5F4F0895909580957095D5
:104F700061957F4F8F4F9F4F0895EE0FFF1F881F42
:104F80008BBF0790F691E02D1994B7FF0C94C223C4
:104F90000E94C223821B930B0895002E083090F0CC
:104FA000982F872F762F652F542F432F322F2227AC
:104FB0000850F4CF220F331F441F551F661F771F61
:104FC000881F991F0A95B2F7002D08952A153B05F1
:104FD0004C055D056E057F058007910708950F93C9
:104FE0001F93CF93DF938230910510F482E090E01D
:104FF000E0917107F091720730E020E0B0E0A0E0AE
:10500000309799F42115310509F44AC0281B390B52
:1050100024303105D8F58A819B816115710589F1AC
:10502000FB0193838283FE0111C040815181028183
:10503000138148175907E0F04817590799F410975A
:1050400061F012960C93129713961C933296CF012F
:10505000DF91CF911F910F910895009371071093E5
:105060007207F4CF2115310551F04217530738F07C
:10507000A901DB019A01BD01DF01F801C1CFEF01F8
:10508000F9CF9093720780937107CDCFFE01E20FA5
:10509000F31F819391932250310939832883D7CF0D
:1050A00020916F0730917007232B41F4209110025B
:1050B000309111023093700720936F0720910E02F8
:1050C00030910F022115310541F42DB73EB74091C3
:1050D000120250911302241B350BE0916F07F091DF
:1050E0007007E217F307A0F42E1B3F0B28173907B0
:1050F00078F0AC014E5F5F4F2417350748F04E0F34
:105100005F1F5093700740936F07819391939FCFD8
:10511000F0E0E0E09CCFCF93DF930097E9F0FC0153
:10512000329713821282A0917107B0917207ED013C
:1051300030E020E01097A1F420813181820F931F8D
:1051400020916F07309170072817390709F061C067
:10515000F0937007E0936F07DF91CF910895EA0114
:10516000CE17DF07E8F54A815B819E0141155105A5
:10517000B1F7E901FB83EA8349915991C40FD51F27
:10518000EC17FD0761F4808191810296840F951FD1
:10519000E90199838883828193819B838A83F0E0EC
:1051A000E0E012968D919C9113970097B9F52D919F
:1051B0003C911197CD010296820F931F20916F07AA
:1051C000309170072817390739F6309751F510924A
:1051D000720710927107B0937007A0936F07BCCF4E
:1051E000D383C28340815181840F951FC817D9078B
:1051F00061F44E5F5F4F88819981480F591F518339
:1052000040838A819B81938382832115310509F034
:10521000B0CFF0937207E09371079ECFFD01DC01E0
:10522000C0CF13821282D7CF9111089581568A512F
:1052300008F4805285580895FC018191861721F069
:105240008823D9F7992708953197CF010895FB0155
:10525000DC014150504048F001900D920020C9F708
:1052600001C01D9241505040E0F7089511E0CCE894
:10527000D1E000E006C0802FFE010E94BD272196EC
:10528000011DCD38D10780E00807A9F7F894FFCFBA
:1052900040771B00C8000000FF0000000000000075
:1052A000730780000103F8FAFCFDFF031F1C1F1E9B
:1052B0001F1E1F1F1E1F1E1FC01200000096000091
:1052C00080250000004B0000063600000000DD03D2
:1052D000B902E6022A041703F502090300000000E0
:1052E00075084808A4081E0841082E081F084175C3
:1052F0006C64204C20533A643D342C6F3D362C6254
:105300003D3130313A67352C632C38632C632C6582
:105310002C642C38632C642C38652C38642C632C5A
:1053200038632C652C672C32612C612C672C386516
:105330002C652C632C642C38632C642C38652C3839
:10534000642C632C3861352C61352C67352C326325
:10535000004833784361742773204E697869654348
:105360006C6F636B204669726D7761726520284EA1
:105370004353333138290D0A0047505354696D6542
:105380003A205363616E6E696E672E2E2E200029BF
:105390002000636F6E666967280047505354696D3B
:1053A000653A20466F756E642047505320646576D9
:1053B0006963652100206261756428004750535479
:1053C000696D653A20436F727275707420524D4357
:1053D000206D657373616765210047505354696D93
:1053E000653A205570646174696E67204750532098
:1053F00054696D652E2E2E2000496E6974696174A2
:10540000696E67204750532073796E632E004750B2
:08541000532053796E63200064
:00000001FF
